{
  "_format": "hh-sol-artifact-1",
  "contractName": "QuoteManager",
  "sourceName": "contracts/QuoteManager.sol",
  "abi": [
    {
      "anonymous": false,
      "inputs": [
        {
          "indexed": true,
          "internalType": "uint256",
          "name": "quoteId",
          "type": "uint256"
        },
        {
          "indexed": false,
          "internalType": "string",
          "name": "text",
          "type": "string"
        },
        {
          "indexed": false,
          "internalType": "string",
          "name": "author",
          "type": "string"
        },
        {
          "indexed": true,
          "internalType": "address",
          "name": "submitter",
          "type": "address"
        }
      ],
      "name": "QuoteAdded",
      "type": "event"
    },
    {
      "anonymous": false,
      "inputs": [
        {
          "indexed": true,
          "internalType": "uint256",
          "name": "quoteId",
          "type": "uint256"
        }
      ],
      "name": "QuoteDeactivated",
      "type": "event"
    },
    {
      "anonymous": false,
      "inputs": [
        {
          "indexed": true,
          "internalType": "uint256",
          "name": "quoteId",
          "type": "uint256"
        },
        {
          "indexed": false,
          "internalType": "string",
          "name": "text",
          "type": "string"
        },
        {
          "indexed": false,
          "internalType": "string",
          "name": "author",
          "type": "string"
        }
      ],
      "name": "QuoteUpdated",
      "type": "event"
    },
    {
      "inputs": [
        {
          "internalType": "string",
          "name": "text",
          "type": "string"
        },
        {
          "internalType": "string",
          "name": "author",
          "type": "string"
        },
        {
          "internalType": "string",
          "name": "category",
          "type": "string"
        }
      ],
      "name": "addQuote",
      "outputs": [
        {
          "internalType": "uint256",
          "name": "",
          "type": "uint256"
        }
      ],
      "stateMutability": "nonpayable",
      "type": "function"
    },
    {
      "inputs": [
        {
          "internalType": "uint256",
          "name": "quoteId",
          "type": "uint256"
        }
      ],
      "name": "deactivateQuote",
      "outputs": [],
      "stateMutability": "nonpayable",
      "type": "function"
    },
    {
      "inputs": [],
      "name": "getActiveQuoteCount",
      "outputs": [
        {
          "internalType": "uint256",
          "name": "",
          "type": "uint256"
        }
      ],
      "stateMutability": "view",
      "type": "function"
    },
    {
      "inputs": [],
      "name": "getAllQuotes",
      "outputs": [
        {
          "components": [
            {
              "internalType": "uint256",
              "name": "id",
              "type": "uint256"
            },
            {
              "internalType": "string",
              "name": "text",
              "type": "string"
            },
            {
              "internalType": "string",
              "name": "author",
              "type": "string"
            },
            {
              "internalType": "string",
              "name": "category",
              "type": "string"
            },
            {
              "internalType": "address",
              "name": "submitter",
              "type": "address"
            },
            {
              "internalType": "uint256",
              "name": "timestamp",
              "type": "uint256"
            },
            {
              "internalType": "bool",
              "name": "isActive",
              "type": "bool"
            }
          ],
          "internalType": "struct QuoteManager.Quote[]",
          "name": "",
          "type": "tuple[]"
        }
      ],
      "stateMutability": "view",
      "type": "function"
    },
    {
      "inputs": [
        {
          "internalType": "uint256",
          "name": "quoteId",
          "type": "uint256"
        }
      ],
      "name": "getQuote",
      "outputs": [
        {
          "components": [
            {
              "internalType": "uint256",
              "name": "id",
              "type": "uint256"
            },
            {
              "internalType": "string",
              "name": "text",
              "type": "string"
            },
            {
              "internalType": "string",
              "name": "author",
              "type": "string"
            },
            {
              "internalType": "string",
              "name": "category",
              "type": "string"
            },
            {
              "internalType": "address",
              "name": "submitter",
              "type": "address"
            },
            {
              "internalType": "uint256",
              "name": "timestamp",
              "type": "uint256"
            },
            {
              "internalType": "bool",
              "name": "isActive",
              "type": "bool"
            }
          ],
          "internalType": "struct QuoteManager.Quote",
          "name": "",
          "type": "tuple"
        }
      ],
      "stateMutability": "view",
      "type": "function"
    },
    {
      "inputs": [
        {
          "internalType": "string",
          "name": "category",
          "type": "string"
        }
      ],
      "name": "getQuotesByCategory",
      "outputs": [
        {
          "components": [
            {
              "internalType": "uint256",
              "name": "id",
              "type": "uint256"
            },
            {
              "internalType": "string",
              "name": "text",
              "type": "string"
            },
            {
              "internalType": "string",
              "name": "author",
              "type": "string"
            },
            {
              "internalType": "string",
              "name": "category",
              "type": "string"
            },
            {
              "internalType": "address",
              "name": "submitter",
              "type": "address"
            },
            {
              "internalType": "uint256",
              "name": "timestamp",
              "type": "uint256"
            },
            {
              "internalType": "bool",
              "name": "isActive",
              "type": "bool"
            }
          ],
          "internalType": "struct QuoteManager.Quote[]",
          "name": "",
          "type": "tuple[]"
        }
      ],
      "stateMutability": "view",
      "type": "function"
    },
    {
      "inputs": [],
      "name": "getTotalQuoteCount",
      "outputs": [
        {
          "internalType": "uint256",
          "name": "",
          "type": "uint256"
        }
      ],
      "stateMutability": "view",
      "type": "function"
    },
    {
      "inputs": [
        {
          "internalType": "address",
          "name": "user",
          "type": "address"
        }
      ],
      "name": "getUserQuotes",
      "outputs": [
        {
          "components": [
            {
              "internalType": "uint256",
              "name": "id",
              "type": "uint256"
            },
            {
              "internalType": "string",
              "name": "text",
              "type": "string"
            },
            {
              "internalType": "string",
              "name": "author",
              "type": "string"
            },
            {
              "internalType": "string",
              "name": "category",
              "type": "string"
            },
            {
              "internalType": "address",
              "name": "submitter",
              "type": "address"
            },
            {
              "internalType": "uint256",
              "name": "timestamp",
              "type": "uint256"
            },
            {
              "internalType": "bool",
              "name": "isActive",
              "type": "bool"
            }
          ],
          "internalType": "struct QuoteManager.Quote[]",
          "name": "",
          "type": "tuple[]"
        }
      ],
      "stateMutability": "view",
      "type": "function"
    },
    {
      "inputs": [
        {
          "internalType": "uint256",
          "name": "quoteId",
          "type": "uint256"
        },
        {
          "internalType": "string",
          "name": "text",
          "type": "string"
        },
        {
          "internalType": "string",
          "name": "author",
          "type": "string"
        }
      ],
      "name": "updateQuote",
      "outputs": [],
      "stateMutability": "nonpayable",
      "type": "function"
    }
  ],
  "bytecode": "0x608060405234801561001057600080fd5b506129ab806100206000396000f3fe608060405234801561001057600080fd5b50600436106100935760003560e01c8063899cb93111610066578063899cb93114610120578063970e0fd51461013c578063ca3952b31461016c578063cf39918e1461019c578063f5970829146101cc57610093565b80631162cdd8146100985780634c4332ba146100c857806351e62806146100e657806353fec11d14610102575b600080fd5b6100b260048036038101906100ad9190611d28565b6101ea565b6040516100bf9190611de8565b60405180910390f35b6100d0610506565b6040516100dd9190612059565b60405180910390f35b61010060048036038101906100fb91906120a7565b6108c7565b005b61010a610bad565b6040516101179190611de8565b60405180910390f35b61013a60048036038101906101359190612132565b610bb6565b005b6101566004803603810190610151919061215f565b610ddd565b6040516101639190612059565b60405180910390f35b610186600480360381019061018191906121d4565b6112ad565b6040516101939190612059565b60405180910390f35b6101b660048036038101906101b19190612132565b61179e565b6040516101c391906122ab565b60405180910390f35b6101d4611b00565b6040516101e19190611de8565b60405180910390f35b60008084511161022f576040517f08c379a00000000000000000000000000000000000000000000000000000000081526004016102269061232a565b60405180910390fd5b6000835111610273576040517f08c379a000000000000000000000000000000000000000000000000000000000815260040161026a90612396565b60405180910390fd5b600080815480929190610285906123e5565b919050555060008054905060006040518060e001604052808381526020018781526020018681526020018581526020013373ffffffffffffffffffffffffffffffffffffffff168152602001428152602001600115158152509050600181908060018154018082558091505060019003906000526020600020906007020160009091909190915060008201518160000155602082015181600101908161032b9190612639565b5060408201518160020190816103419190612639565b5060608201518160030190816103579190612639565b5060808201518160040160006101000a81548173ffffffffffffffffffffffffffffffffffffffff021916908373ffffffffffffffffffffffffffffffffffffffff16021790555060a0820151816005015560c08201518160060160006101000a81548160ff0219169083151502179055505050600180805490506103dc919061270b565b6002600084815260200190815260200160002081905550600360003373ffffffffffffffffffffffffffffffffffffffff1673ffffffffffffffffffffffffffffffffffffffff1681526020019081526020016000208290806001815401808255809150506001900390600052602060002001600090919091909150556000845111156104a957600484604051610473919061277b565b90815260200160405180910390208290806001815401808255809150506001900390600052602060002001600090919091909150555b3373ffffffffffffffffffffffffffffffffffffffff16827fd932295de34ef17badaa055703e9c7bb1025b2c458af9873048cea42b28335de88886040516104f29291906127cb565b60405180910390a381925050509392505050565b60606000805b600180549050811015610573576001818154811061052d5761052c612802565b5b906000526020600020906007020160060160009054906101000a900460ff161561056057818061055c906123e5565b9250505b808061056b906123e5565b91505061050c565b5060008167ffffffffffffffff8111156105905761058f611bfd565b5b6040519080825280602002602001820160405280156105c957816020015b6105b6611b79565b8152602001906001900390816105ae5790505b5090506000805b6001805490508110156108bd57600181815481106105f1576105f0612802565b5b906000526020600020906007020160060160009054906101000a900460ff16156108aa576001818154811061062957610628612802565b5b90600052602060002090600702016040518060e00160405290816000820154815260200160018201805461065c9061245c565b80601f01602080910402602001604051908101604052809291908181526020018280546106889061245c565b80156106d55780601f106106aa576101008083540402835291602001916106d5565b820191906000526020600020905b8154815290600101906020018083116106b857829003601f168201915b505050505081526020016002820180546106ee9061245c565b80601f016020809104026020016040519081016040528092919081815260200182805461071a9061245c565b80156107675780601f1061073c57610100808354040283529160200191610767565b820191906000526020600020905b81548152906001019060200180831161074a57829003601f168201915b505050505081526020016003820180546107809061245c565b80601f01602080910402602001604051908101604052809291908181526020018280546107ac9061245c565b80156107f95780601f106107ce576101008083540402835291602001916107f9565b820191906000526020600020905b8154815290600101906020018083116107dc57829003601f168201915b505050505081526020016004820160009054906101000a900473ffffffffffffffffffffffffffffffffffffffff1673ffffffffffffffffffffffffffffffffffffffff1673ffffffffffffffffffffffffffffffffffffffff168152602001600582015481526020016006820160009054906101000a900460ff1615151515815250508383815181106108905761088f612802565b5b602002602001018190525081806108a6906123e5565b9250505b80806108b5906123e5565b9150506105d0565b5081935050505090565b826000811180156108da57506000548111155b610919576040517f08c379a00000000000000000000000000000000000000000000000000000000081526004016109109061287d565b60405180910390fd5b60016002600083815260200190815260200160002054815481106109405761093f612802565b5b906000526020600020906007020160060160009054906101000a900460ff1661099e576040517f08c379a0000000000000000000000000000000000000000000000000000000008152600401610995906128e9565b60405180910390fd5b833373ffffffffffffffffffffffffffffffffffffffff1660016002600084815260200190815260200160002054815481106109dd576109dc612802565b5b906000526020600020906007020160040160009054906101000a900473ffffffffffffffffffffffffffffffffffffffff1673ffffffffffffffffffffffffffffffffffffffff1614610a65576040517f08c379a0000000000000000000000000000000000000000000000000000000008152600401610a5c90612955565b60405180910390fd5b6000845111610aa9576040517f08c379a0000000000000000000000000000000000000000000000000000000008152600401610aa09061232a565b60405180910390fd5b6000835111610aed576040517f08c379a0000000000000000000000000000000000000000000000000000000008152600401610ae490612396565b60405180910390fd5b6000600260008781526020019081526020016000205490508460018281548110610b1a57610b19612802565b5b90600052602060002090600702016001019081610b379190612639565b508360018281548110610b4d57610b4c612802565b5b90600052602060002090600702016002019081610b6a9190612639565b50857f53b3bcb30cdb6641d3103655c9202be16e3ede233d126270d81947791bfde0d18686604051610b9d9291906127cb565b60405180910390a2505050505050565b60008054905090565b80600081118015610bc957506000548111155b610c08576040517f08c379a0000000000000000000000000000000000000000000000000000000008152600401610bff9061287d565b60405180910390fd5b6001600260008381526020019081526020016000205481548110610c2f57610c2e612802565b5b906000526020600020906007020160060160009054906101000a900460ff16610c8d576040517f08c379a0000000000000000000000000000000000000000000000000000000008152600401610c84906128e9565b60405180910390fd5b813373ffffffffffffffffffffffffffffffffffffffff166001600260008481526020019081526020016000205481548110610ccc57610ccb612802565b5b906000526020600020906007020160040160009054906101000a900473ffffffffffffffffffffffffffffffffffffffff1673ffffffffffffffffffffffffffffffffffffffff1614610d54576040517f08c379a0000000000000000000000000000000000000000000000000000000008152600401610d4b90612955565b60405180910390fd5b600060026000858152602001908152602001600020549050600060018281548110610d8257610d81612802565b5b906000526020600020906007020160060160006101000a81548160ff021916908315150217905550837f644afc0b7bd1e49599d7e42b296a0382d4e76281cba143126951d11c4e2c309860405160405180910390a250505050565b60606000600483604051610df1919061277b565b9081526020016040518091039020805480602002602001604051908101604052809291908181526020018280548015610e4957602002820191906000526020600020905b815481526020019060010190808311610e35575b505050505090506000815167ffffffffffffffff811115610e6d57610e6c611bfd565b5b604051908082528060200260200182016040528015610ea657816020015b610e93611b79565b815260200190600190039081610e8b5790505b5090506000805b83518110156111f057600160026000868481518110610ecf57610ece612802565b5b602002602001015181526020019081526020016000205481548110610ef757610ef6612802565b5b906000526020600020906007020160060160009054906101000a900460ff16156111dd57600160026000868481518110610f3457610f33612802565b5b602002602001015181526020019081526020016000205481548110610f5c57610f5b612802565b5b90600052602060002090600702016040518060e001604052908160008201548152602001600182018054610f8f9061245c565b80601f0160208091040260200160405190810160405280929190818152602001828054610fbb9061245c565b80156110085780601f10610fdd57610100808354040283529160200191611008565b820191906000526020600020905b815481529060010190602001808311610feb57829003601f168201915b505050505081526020016002820180546110219061245c565b80601f016020809104026020016040519081016040528092919081815260200182805461104d9061245c565b801561109a5780601f1061106f5761010080835404028352916020019161109a565b820191906000526020600020905b81548152906001019060200180831161107d57829003601f168201915b505050505081526020016003820180546110b39061245c565b80601f01602080910402602001604051908101604052809291908181526020018280546110df9061245c565b801561112c5780601f106111015761010080835404028352916020019161112c565b820191906000526020600020905b81548152906001019060200180831161110f57829003601f168201915b505050505081526020016004820160009054906101000a900473ffffffffffffffffffffffffffffffffffffffff1673ffffffffffffffffffffffffffffffffffffffff1673ffffffffffffffffffffffffffffffffffffffff168152602001600582015481526020016006820160009054906101000a900460ff1615151515815250508383815181106111c3576111c2612802565b5b602002602001018190525081806111d9906123e5565b9250505b80806111e8906123e5565b915050610ead565b5060008167ffffffffffffffff81111561120d5761120c611bfd565b5b60405190808252806020026020018201604052801561124657816020015b611233611b79565b81526020019060019003908161122b5790505b50905060005b828110156112a05783818151811061126757611266612802565b5b602002602001015182828151811061128257611281612802565b5b60200260200101819052508080611298906123e5565b91505061124c565b5080945050505050919050565b60606000600360008473ffffffffffffffffffffffffffffffffffffffff1673ffffffffffffffffffffffffffffffffffffffff16815260200190815260200160002080548060200260200160405190810160405280929190818152602001828054801561133a57602002820191906000526020600020905b815481526020019060010190808311611326575b505050505090506000815167ffffffffffffffff81111561135e5761135d611bfd565b5b60405190808252806020026020018201604052801561139757816020015b611384611b79565b81526020019060019003908161137c5790505b5090506000805b83518110156116e1576001600260008684815181106113c0576113bf612802565b5b6020026020010151815260200190815260200160002054815481106113e8576113e7612802565b5b906000526020600020906007020160060160009054906101000a900460ff16156116ce5760016002600086848151811061142557611424612802565b5b60200260200101518152602001908152602001600020548154811061144d5761144c612802565b5b90600052602060002090600702016040518060e0016040529081600082015481526020016001820180546114809061245c565b80601f01602080910402602001604051908101604052809291908181526020018280546114ac9061245c565b80156114f95780601f106114ce576101008083540402835291602001916114f9565b820191906000526020600020905b8154815290600101906020018083116114dc57829003601f168201915b505050505081526020016002820180546115129061245c565b80601f016020809104026020016040519081016040528092919081815260200182805461153e9061245c565b801561158b5780601f106115605761010080835404028352916020019161158b565b820191906000526020600020905b81548152906001019060200180831161156e57829003601f168201915b505050505081526020016003820180546115a49061245c565b80601f01602080910402602001604051908101604052809291908181526020018280546115d09061245c565b801561161d5780601f106115f25761010080835404028352916020019161161d565b820191906000526020600020905b81548152906001019060200180831161160057829003601f168201915b505050505081526020016004820160009054906101000a900473ffffffffffffffffffffffffffffffffffffffff1673ffffffffffffffffffffffffffffffffffffffff1673ffffffffffffffffffffffffffffffffffffffff168152602001600582015481526020016006820160009054906101000a900460ff1615151515815250508383815181106116b4576116b3612802565b5b602002602001018190525081806116ca906123e5565b9250505b80806116d9906123e5565b91505061139e565b5060008167ffffffffffffffff8111156116fe576116fd611bfd565b5b60405190808252806020026020018201604052801561173757816020015b611724611b79565b81526020019060019003908161171c5790505b50905060005b828110156117915783818151811061175857611757612802565b5b602002602001015182828151811061177357611772612802565b5b60200260200101819052508080611789906123e5565b91505061173d565b5080945050505050919050565b6117a6611b79565b816000811180156117b957506000548111155b6117f8576040517f08c379a00000000000000000000000000000000000000000000000000000000081526004016117ef9061287d565b60405180910390fd5b600160026000838152602001908152602001600020548154811061181f5761181e612802565b5b906000526020600020906007020160060160009054906101000a900460ff1661187d576040517f08c379a0000000000000000000000000000000000000000000000000000000008152600401611874906128e9565b60405180910390fd5b60016002600085815260200190815260200160002054815481106118a4576118a3612802565b5b90600052602060002090600702016040518060e0016040529081600082015481526020016001820180546118d79061245c565b80601f01602080910402602001604051908101604052809291908181526020018280546119039061245c565b80156119505780601f1061192557610100808354040283529160200191611950565b820191906000526020600020905b81548152906001019060200180831161193357829003601f168201915b505050505081526020016002820180546119699061245c565b80601f01602080910402602001604051908101604052809291908181526020018280546119959061245c565b80156119e25780601f106119b7576101008083540402835291602001916119e2565b820191906000526020600020905b8154815290600101906020018083116119c557829003601f168201915b505050505081526020016003820180546119fb9061245c565b80601f0160208091040260200160405190810160405280929190818152602001828054611a279061245c565b8015611a745780601f10611a4957610100808354040283529160200191611a74565b820191906000526020600020905b815481529060010190602001808311611a5757829003601f168201915b505050505081526020016004820160009054906101000a900473ffffffffffffffffffffffffffffffffffffffff1673ffffffffffffffffffffffffffffffffffffffff1673ffffffffffffffffffffffffffffffffffffffff168152602001600582015481526020016006820160009054906101000a900460ff161515151581525050915050919050565b6000806000905060005b600180549050811015611b715760018181548110611b2b57611b2a612802565b5b906000526020600020906007020160060160009054906101000a900460ff1615611b5e578180611b5a906123e5565b9250505b8080611b69906123e5565b915050611b0a565b508091505090565b6040518060e0016040528060008152602001606081526020016060815260200160608152602001600073ffffffffffffffffffffffffffffffffffffffff168152602001600081526020016000151581525090565b6000604051905090565b600080fd5b600080fd5b600080fd5b600080fd5b6000601f19601f8301169050919050565b7f4e487b7100000000000000000000000000000000000000000000000000000000600052604160045260246000fd5b611c3582611bec565b810181811067ffffffffffffffff82111715611c5457611c53611bfd565b5b80604052505050565b6000611c67611bce565b9050611c738282611c2c565b919050565b600067ffffffffffffffff821115611c9357611c92611bfd565b5b611c9c82611bec565b9050602081019050919050565b82818337600083830152505050565b6000611ccb611cc684611c78565b611c5d565b905082815260208101848484011115611ce757611ce6611be7565b5b611cf2848285611ca9565b509392505050565b600082601f830112611d0f57611d0e611be2565b5b8135611d1f848260208601611cb8565b91505092915050565b600080600060608486031215611d4157611d40611bd8565b5b600084013567ffffffffffffffff811115611d5f57611d5e611bdd565b5b611d6b86828701611cfa565b935050602084013567ffffffffffffffff811115611d8c57611d8b611bdd565b5b611d9886828701611cfa565b925050604084013567ffffffffffffffff811115611db957611db8611bdd565b5b611dc586828701611cfa565b9150509250925092565b6000819050919050565b611de281611dcf565b82525050565b6000602082019050611dfd6000830184611dd9565b92915050565b600081519050919050565b600082825260208201905092915050565b6000819050602082019050919050565b611e3881611dcf565b82525050565b600081519050919050565b600082825260208201905092915050565b60005b83811015611e78578082015181840152602081019050611e5d565b60008484015250505050565b6000611e8f82611e3e565b611e998185611e49565b9350611ea9818560208601611e5a565b611eb281611bec565b840191505092915050565b600073ffffffffffffffffffffffffffffffffffffffff82169050919050565b6000611ee882611ebd565b9050919050565b611ef881611edd565b82525050565b60008115159050919050565b611f1381611efe565b82525050565b600060e083016000830151611f316000860182611e2f565b5060208301518482036020860152611f498282611e84565b91505060408301518482036040860152611f638282611e84565b91505060608301518482036060860152611f7d8282611e84565b9150506080830151611f926080860182611eef565b5060a0830151611fa560a0860182611e2f565b5060c0830151611fb860c0860182611f0a565b508091505092915050565b6000611fcf8383611f19565b905092915050565b6000602082019050919050565b6000611fef82611e03565b611ff98185611e0e565b93508360208202850161200b85611e1f565b8060005b8581101561204757848403895281516120288582611fc3565b945061203383611fd7565b925060208a0199505060018101905061200f565b50829750879550505050505092915050565b600060208201905081810360008301526120738184611fe4565b905092915050565b61208481611dcf565b811461208f57600080fd5b50565b6000813590506120a18161207b565b92915050565b6000806000606084860312156120c0576120bf611bd8565b5b60006120ce86828701612092565b935050602084013567ffffffffffffffff8111156120ef576120ee611bdd565b5b6120fb86828701611cfa565b925050604084013567ffffffffffffffff81111561211c5761211b611bdd565b5b61212886828701611cfa565b9150509250925092565b60006020828403121561214857612147611bd8565b5b600061215684828501612092565b91505092915050565b60006020828403121561217557612174611bd8565b5b600082013567ffffffffffffffff81111561219357612192611bdd565b5b61219f84828501611cfa565b91505092915050565b6121b181611edd565b81146121bc57600080fd5b50565b6000813590506121ce816121a8565b92915050565b6000602082840312156121ea576121e9611bd8565b5b60006121f8848285016121bf565b91505092915050565b600060e0830160008301516122196000860182611e2f565b50602083015184820360208601526122318282611e84565b9150506040830151848203604086015261224b8282611e84565b915050606083015184820360608601526122658282611e84565b915050608083015161227a6080860182611eef565b5060a083015161228d60a0860182611e2f565b5060c08301516122a060c0860182611f0a565b508091505092915050565b600060208201905081810360008301526122c58184612201565b905092915050565b600082825260208201905092915050565b7f51756f746520746578742063616e6e6f7420626520656d707479000000000000600082015250565b6000612314601a836122cd565b915061231f826122de565b602082019050919050565b6000602082019050818103600083015261234381612307565b9050919050565b7f417574686f722063616e6e6f7420626520656d70747900000000000000000000600082015250565b60006123806016836122cd565b915061238b8261234a565b602082019050919050565b600060208201905081810360008301526123af81612373565b9050919050565b7f4e487b7100000000000000000000000000000000000000000000000000000000600052601160045260246000fd5b60006123f082611dcf565b91507fffffffffffffffffffffffffffffffffffffffffffffffffffffffffffffffff8203612422576124216123b6565b5b600182019050919050565b7f4e487b7100000000000000000000000000000000000000000000000000000000600052602260045260246000fd5b6000600282049050600182168061247457607f821691505b6020821081036124875761248661242d565b5b50919050565b60008190508160005260206000209050919050565b60006020601f8301049050919050565b600082821b905092915050565b6000600883026124ef7fffffffffffffffffffffffffffffffffffffffffffffffffffffffffffffffff826124b2565b6124f986836124b2565b95508019841693508086168417925050509392505050565b6000819050919050565b600061253661253161252c84611dcf565b612511565b611dcf565b9050919050565b6000819050919050565b6125508361251b565b61256461255c8261253d565b8484546124bf565b825550505050565b600090565b61257961256c565b612584818484612547565b505050565b5b818110156125a85761259d600082612571565b60018101905061258a565b5050565b601f8211156125ed576125be8161248d565b6125c7846124a2565b810160208510156125d6578190505b6125ea6125e2856124a2565b830182612589565b50505b505050565b600082821c905092915050565b6000612610600019846008026125f2565b1980831691505092915050565b600061262983836125ff565b9150826002028217905092915050565b61264282611e3e565b67ffffffffffffffff81111561265b5761265a611bfd565b5b612665825461245c565b6126708282856125ac565b600060209050601f8311600181146126a35760008415612691578287015190505b61269b858261261d565b865550612703565b601f1984166126b18661248d565b60005b828110156126d9578489015182556001820191506020850194506020810190506126b4565b868310156126f657848901516126f2601f8916826125ff565b8355505b6001600288020188555050505b505050505050565b600061271682611dcf565b915061272183611dcf565b9250828203905081811115612739576127386123b6565b5b92915050565b600081905092915050565b600061275582611e3e565b61275f818561273f565b935061276f818560208601611e5a565b80840191505092915050565b6000612787828461274a565b915081905092915050565b600061279d82611e3e565b6127a781856122cd565b93506127b7818560208601611e5a565b6127c081611bec565b840191505092915050565b600060408201905081810360008301526127e58185612792565b905081810360208301526127f98184612792565b90509392505050565b7f4e487b7100000000000000000000000000000000000000000000000000000000600052603260045260246000fd5b7f496e76616c69642071756f746520494400000000000000000000000000000000600082015250565b60006128676010836122cd565b915061287282612831565b602082019050919050565b600060208201905081810360008301526128968161285a565b9050919050565b7f51756f7465206973206e6f742061637469766500000000000000000000000000600082015250565b60006128d36013836122cd565b91506128de8261289d565b602082019050919050565b60006020820190508181036000830152612902816128c6565b9050919050565b7f4e6f74207468652071756f7465206f776e657200000000000000000000000000600082015250565b600061293f6013836122cd565b915061294a82612909565b602082019050919050565b6000602082019050818103600083015261296e81612932565b905091905056fea2646970667358221220f93009f2da005dc2ec11c3f20fccc3960f2b54001963562d92b3e139006cfc6364736f6c63430008130033",
  "linkReferences": {},
  "deployedLinkReferences": {}
}